{
  "contractName": "Wallet",
  "abi": [
    {
      "inputs": [
        {
          "internalType": "address",
          "name": "_comptroller",
          "type": "address"
        },
        {
          "internalType": "address",
          "name": "_cEthAddress",
          "type": "address"
        }
      ],
      "stateMutability": "nonpayable",
      "type": "constructor"
    },
    {
      "inputs": [],
      "name": "admin",
      "outputs": [
        {
          "internalType": "address",
          "name": "",
          "type": "address"
        }
      ],
      "stateMutability": "view",
      "type": "function",
      "constant": true
    },
    {
      "inputs": [],
      "name": "cEth",
      "outputs": [
        {
          "internalType": "contract CEthInterface",
          "name": "",
          "type": "address"
        }
      ],
      "stateMutability": "view",
      "type": "function",
      "constant": true
    },
    {
      "inputs": [],
      "name": "comptroller",
      "outputs": [
        {
          "internalType": "contract ComptrollerInterface",
          "name": "",
          "type": "address"
        }
      ],
      "stateMutability": "view",
      "type": "function",
      "constant": true
    },
    {
      "inputs": [
        {
          "internalType": "address",
          "name": "cTokenAddress",
          "type": "address"
        }
      ],
      "name": "getUnderlyingBalance",
      "outputs": [
        {
          "internalType": "uint256",
          "name": "",
          "type": "uint256"
        }
      ],
      "stateMutability": "nonpayable",
      "type": "function"
    },
    {
      "inputs": [],
      "name": "getUnderlyingEthBalance",
      "outputs": [
        {
          "internalType": "uint256",
          "name": "",
          "type": "uint256"
        }
      ],
      "stateMutability": "nonpayable",
      "type": "function"
    },
    {
      "inputs": [
        {
          "internalType": "address",
          "name": "cTokenAddress",
          "type": "address"
        }
      ],
      "name": "getcTokenBalance",
      "outputs": [
        {
          "internalType": "uint256",
          "name": "",
          "type": "uint256"
        }
      ],
      "stateMutability": "view",
      "type": "function",
      "constant": true
    },
    {
      "inputs": [
        {
          "internalType": "address",
          "name": "cTokenAddress",
          "type": "address"
        },
        {
          "internalType": "uint256",
          "name": "underlyingAmount",
          "type": "uint256"
        }
      ],
      "name": "deposit",
      "outputs": [],
      "stateMutability": "nonpayable",
      "type": "function"
    },
    {
      "inputs": [
        {
          "internalType": "address",
          "name": "cTokenAddress",
          "type": "address"
        },
        {
          "internalType": "uint256",
          "name": "underlyingAmount",
          "type": "uint256"
        },
        {
          "internalType": "address",
          "name": "recipient",
          "type": "address"
        }
      ],
      "name": "withdraw",
      "outputs": [],
      "stateMutability": "nonpayable",
      "type": "function"
    }
  ],
  "bytecode": "0x608060405234801561001057600080fd5b50604051610fc7380380610fc78339818101604052604081101561003357600080fd5b8101908080519060200190929190805190602001909291905050508181816000806101000a81548173ffffffffffffffffffffffffffffffffffffffff021916908373ffffffffffffffffffffffffffffffffffffffff16021790555080600160006101000a81548173ffffffffffffffffffffffffffffffffffffffff021916908373ffffffffffffffffffffffffffffffffffffffff160217905550505033600260006101000a81548173ffffffffffffffffffffffffffffffffffffffff021916908373ffffffffffffffffffffffffffffffffffffffff1602179055505050610ea2806101256000396000f3fe608060405234801561001057600080fd5b50600436106100885760003560e01c8063703d795c1161005b578063703d795c146101d5578063a44026a3146101f3578063f0d23e8f14610227578063f851a4401461027f57610088565b80631031cb5f1461008d57806347e7ef24146100e55780635fe3b5671461013357806369328dec14610167575b600080fd5b6100cf600480360360208110156100a357600080fd5b81019080803573ffffffffffffffffffffffffffffffffffffffff1690602001909291905050506102b3565b6040518082815260200191505060405180910390f35b610131600480360360408110156100fb57600080fd5b81019080803573ffffffffffffffffffffffffffffffffffffffff1690602001909291908035906020019092919050505061035e565b005b61013b610445565b604051808273ffffffffffffffffffffffffffffffffffffffff16815260200191505060405180910390f35b6101d36004803603606081101561017d57600080fd5b81019080803573ffffffffffffffffffffffffffffffffffffffff16906020019092919080359060200190929190803573ffffffffffffffffffffffffffffffffffffffff169060200190929190505050610469565b005b6101dd610720565b6040518082815260200191505060405180910390f35b6101fb6107ed565b604051808273ffffffffffffffffffffffffffffffffffffffff16815260200191505060405180910390f35b6102696004803603602081101561023d57600080fd5b81019080803573ffffffffffffffffffffffffffffffffffffffff169060200190929190505050610813565b6040518082815260200191505060405180910390f35b6102876108c0565b604051808273ffffffffffffffffffffffffffffffffffffffff16815260200191505060405180910390f35b60008173ffffffffffffffffffffffffffffffffffffffff166370a08231306040518263ffffffff1660e01b8152600401808273ffffffffffffffffffffffffffffffffffffffff16815260200191505060206040518083038186803b15801561031c57600080fd5b505afa158015610330573d6000803e3d6000fd5b505050506040513d602081101561034657600080fd5b81019080805190602001909291905050509050919050565b6000610369836108e6565b90508073ffffffffffffffffffffffffffffffffffffffff166323b872dd3330856040518463ffffffff1660e01b8152600401808473ffffffffffffffffffffffffffffffffffffffff1681526020018373ffffffffffffffffffffffffffffffffffffffff1681526020018281526020019350505050602060405180830381600087803b1580156103fa57600080fd5b505af115801561040e573d6000803e3d6000fd5b505050506040513d602081101561042457600080fd5b8101908080519060200190929190505050506104408383610970565b505050565b60008054906101000a900473ffffffffffffffffffffffffffffffffffffffff1681565b8161047384610813565b10156104e7576040517f08c379a000000000000000000000000000000000000000000000000000000000815260040180806020018281038252600f8152602001807f62616c616e636520746f6f206c6f77000000000000000000000000000000000081525060200191505060405180910390fd5b6104ef610b99565b6104f98383610c3c565b6000610504846108e6565b90508073ffffffffffffffffffffffffffffffffffffffff1663a9059cbb83856040518363ffffffff1660e01b8152600401808373ffffffffffffffffffffffffffffffffffffffff16815260200182815260200192505050602060405180830381600087803b15801561057757600080fd5b505af115801561058b573d6000803e3d6000fd5b505050506040513d60208110156105a157600080fd5b81019080805190602001909291905050505060006105bd610d32565b9050600081905060008173ffffffffffffffffffffffffffffffffffffffff166370a08231306040518263ffffffff1660e01b8152600401808273ffffffffffffffffffffffffffffffffffffffff16815260200191505060206040518083038186803b15801561062d57600080fd5b505afa158015610641573d6000803e3d6000fd5b505050506040513d602081101561065757600080fd5b810190808051906020019092919050505090508173ffffffffffffffffffffffffffffffffffffffff1663a9059cbb86836040518363ffffffff1660e01b8152600401808373ffffffffffffffffffffffffffffffffffffffff16815260200182815260200192505050602060405180830381600087803b1580156106db57600080fd5b505af11580156106ef573d6000803e3d6000fd5b505050506040513d602081101561070557600080fd5b81019080805190602001909291905050505050505050505050565b6000600160009054906101000a900473ffffffffffffffffffffffffffffffffffffffff1673ffffffffffffffffffffffffffffffffffffffff16633af9e669306040518263ffffffff1660e01b8152600401808273ffffffffffffffffffffffffffffffffffffffff168152602001915050602060405180830381600087803b1580156107ad57600080fd5b505af11580156107c1573d6000803e3d6000fd5b505050506040513d60208110156107d757600080fd5b8101908080519060200190929190505050905090565b600160009054906101000a900473ffffffffffffffffffffffffffffffffffffffff1681565b60008173ffffffffffffffffffffffffffffffffffffffff16633af9e669306040518263ffffffff1660e01b8152600401808273ffffffffffffffffffffffffffffffffffffffff168152602001915050602060405180830381600087803b15801561087e57600080fd5b505af1158015610892573d6000803e3d6000fd5b505050506040513d60208110156108a857600080fd5b81019080805190602001909291905050509050919050565b600260009054906101000a900473ffffffffffffffffffffffffffffffffffffffff1681565b60008173ffffffffffffffffffffffffffffffffffffffff16636f307dc36040518163ffffffff1660e01b815260040160206040518083038186803b15801561092e57600080fd5b505afa158015610942573d6000803e3d6000fd5b505050506040513d602081101561095857600080fd5b81019080805190602001909291905050509050919050565b600082905060008173ffffffffffffffffffffffffffffffffffffffff16636f307dc36040518163ffffffff1660e01b815260040160206040518083038186803b1580156109bd57600080fd5b505afa1580156109d1573d6000803e3d6000fd5b505050506040513d60208110156109e757600080fd5b810190808051906020019092919050505090508073ffffffffffffffffffffffffffffffffffffffff1663095ea7b385856040518363ffffffff1660e01b8152600401808373ffffffffffffffffffffffffffffffffffffffff16815260200182815260200192505050602060405180830381600087803b158015610a6b57600080fd5b505af1158015610a7f573d6000803e3d6000fd5b505050506040513d6020811015610a9557600080fd5b81019080805190602001909291905050505060008273ffffffffffffffffffffffffffffffffffffffff1663a0712d68856040518263ffffffff1660e01b815260040180828152602001915050602060405180830381600087803b158015610afc57600080fd5b505af1158015610b10573d6000803e3d6000fd5b505050506040513d6020811015610b2657600080fd5b8101908080519060200190929190505050905060008114610b92576040517f08c379a0000000000000000000000000000000000000000000000000000000008152600401808060200182810382526040815260200180610e2d6040913960400191505060405180910390fd5b5050505050565b60008054906101000a900473ffffffffffffffffffffffffffffffffffffffff1673ffffffffffffffffffffffffffffffffffffffff1663e9af0292306040518263ffffffff1660e01b8152600401808273ffffffffffffffffffffffffffffffffffffffff168152602001915050600060405180830381600087803b158015610c2257600080fd5b505af1158015610c36573d6000803e3d6000fd5b50505050565b600082905060008173ffffffffffffffffffffffffffffffffffffffff1663852a12e3846040518263ffffffff1660e01b815260040180828152602001915050602060405180830381600087803b158015610c9657600080fd5b505af1158015610caa573d6000803e3d6000fd5b505050506040513d6020811015610cc057600080fd5b8101908080519060200190929190505050905060008114610d2c576040517f08c379a0000000000000000000000000000000000000000000000000000000008152600401808060200182810382526051815260200180610ddc6051913960600191505060405180910390fd5b50505050565b60008060009054906101000a900473ffffffffffffffffffffffffffffffffffffffff1673ffffffffffffffffffffffffffffffffffffffff16639d1b5a0a6040518163ffffffff1660e01b815260040160206040518083038186803b158015610d9b57600080fd5b505afa158015610daf573d6000803e3d6000fd5b505050506040513d6020811015610dc557600080fd5b810190808051906020019092919050505090509056fe63546f6b656e2372656465656d556e6465726c79696e672829206661696c65642e2073656520436f6d706f756e64204572726f725265706f727465722e736f6c20666f72206d6f72652064657461696c7363546f6b656e236d696e742829206661696c65642e2073656520436f6d706f756e64204572726f725265706f727465722e736f6c20666f722064657461696c73a2646970667358221220a47ca35d313d0b84d8f169b9b1abf76f836e6fc67472602da34857cdf552d84464736f6c63430007030033",
  "immutableReferences": {},
  "source": "// SPDX-License-Identifier: MIT\npragma solidity >=0.7.3;\n\nimport '@openzeppelin/contracts/token/ERC20/IERC20.sol';\nimport './Compoud.sol';\n\n\n\ncontract Wallet is Compound {\n    address public admin;\n\n    constructor(\n        address _comptroller,\n        address _cEthAddress\n    ) Compound(_comptroller, _cEthAddress) {\n        admin = msg.sender;\n    }\n    function deposit(address cTokenAddress, uint underlyingAmount)  external {\n        address underlyingAddress = getUnderlyingAddress(cTokenAddress);\n        IERC20(underlyingAddress).transferFrom(msg.sender, address(this), underlyingAmount);\n        supply(cTokenAddress, underlyingAmount);\n    }\n\n    function withdraw(address cTokenAddress, uint underlyingAmount, address recipient)  external {\n        require(getUnderlyingBalance(cTokenAddress) >= underlyingAmount, 'balance too low');\n        claimComp();\n        redeem(cTokenAddress, underlyingAmount);\n\n        address underlyingAddress = getUnderlyingAddress(cTokenAddress);\n        IERC20(underlyingAddress).transfer(recipient, underlyingAmount);\n\n        address compAddress = getCompAddress();\n        IERC20 compToken = IERC20(compAddress);\n        uint compAmount = compToken.balanceOf(address(this));\n        compToken.transfer(recipient, compAmount);\n    }\n}",
  "sourcePath": "/Users/angelicacolon/Desktop/Defi-wallet/contracts/Wallet.sol",
  "compiler": {
    "name": "solc",
    "version": "0.7.3+commit.9bfce1f6.Emscripten.clang"
  },
  "schemaVersion": "3.4.1",
  "updatedAt": "2021-12-15T20:00:31.767Z",
  "networkType": "ethereum",
  "devdoc": {
    "kind": "dev",
    "methods": {},
    "version": 1
  },
  "userdoc": {
    "kind": "user",
    "methods": {},
    "version": 1
  }
}